{
  "_format": "hh-sol-artifact-1",
  "contractName": "Domains",
  "sourceName": "contracts/Domains.sol",
  "abi": [
    {
      "inputs": [
        {
          "internalType": "string",
          "name": "_tld",
          "type": "string"
        }
      ],
      "stateMutability": "payable",
      "type": "constructor"
    },
    {
      "inputs": [],
      "name": "AlreadyRegistered",
      "type": "error"
    },
    {
      "inputs": [
        {
          "internalType": "string",
          "name": "name",
          "type": "string"
        }
      ],
      "name": "InvalidName",
      "type": "error"
    },
    {
      "inputs": [],
      "name": "Unauthorized",
      "type": "error"
    },
    {
      "anonymous": false,
      "inputs": [
        {
          "indexed": true,
          "internalType": "address",
          "name": "owner",
          "type": "address"
        },
        {
          "indexed": true,
          "internalType": "address",
          "name": "approved",
          "type": "address"
        },
        {
          "indexed": true,
          "internalType": "uint256",
          "name": "tokenId",
          "type": "uint256"
        }
      ],
      "name": "Approval",
      "type": "event"
    },
    {
      "anonymous": false,
      "inputs": [
        {
          "indexed": true,
          "internalType": "address",
          "name": "owner",
          "type": "address"
        },
        {
          "indexed": true,
          "internalType": "address",
          "name": "operator",
          "type": "address"
        },
        {
          "indexed": false,
          "internalType": "bool",
          "name": "approved",
          "type": "bool"
        }
      ],
      "name": "ApprovalForAll",
      "type": "event"
    },
    {
      "anonymous": false,
      "inputs": [
        {
          "indexed": true,
          "internalType": "address",
          "name": "from",
          "type": "address"
        },
        {
          "indexed": true,
          "internalType": "address",
          "name": "to",
          "type": "address"
        },
        {
          "indexed": true,
          "internalType": "uint256",
          "name": "tokenId",
          "type": "uint256"
        }
      ],
      "name": "Transfer",
      "type": "event"
    },
    {
      "inputs": [
        {
          "internalType": "address",
          "name": "to",
          "type": "address"
        },
        {
          "internalType": "uint256",
          "name": "tokenId",
          "type": "uint256"
        }
      ],
      "name": "approve",
      "outputs": [],
      "stateMutability": "nonpayable",
      "type": "function"
    },
    {
      "inputs": [
        {
          "internalType": "address",
          "name": "owner",
          "type": "address"
        }
      ],
      "name": "balanceOf",
      "outputs": [
        {
          "internalType": "uint256",
          "name": "",
          "type": "uint256"
        }
      ],
      "stateMutability": "view",
      "type": "function"
    },
    {
      "inputs": [
        {
          "internalType": "string",
          "name": "",
          "type": "string"
        }
      ],
      "name": "domains",
      "outputs": [
        {
          "internalType": "address",
          "name": "",
          "type": "address"
        }
      ],
      "stateMutability": "view",
      "type": "function"
    },
    {
      "inputs": [
        {
          "internalType": "string",
          "name": "name",
          "type": "string"
        }
      ],
      "name": "getAddress",
      "outputs": [
        {
          "internalType": "address",
          "name": "",
          "type": "address"
        }
      ],
      "stateMutability": "view",
      "type": "function"
    },
    {
      "inputs": [],
      "name": "getAllNames",
      "outputs": [
        {
          "internalType": "string[]",
          "name": "",
          "type": "string[]"
        }
      ],
      "stateMutability": "view",
      "type": "function"
    },
    {
      "inputs": [
        {
          "internalType": "uint256",
          "name": "tokenId",
          "type": "uint256"
        }
      ],
      "name": "getApproved",
      "outputs": [
        {
          "internalType": "address",
          "name": "",
          "type": "address"
        }
      ],
      "stateMutability": "view",
      "type": "function"
    },
    {
      "inputs": [
        {
          "internalType": "string",
          "name": "name",
          "type": "string"
        }
      ],
      "name": "getRecord",
      "outputs": [
        {
          "internalType": "string",
          "name": "",
          "type": "string"
        }
      ],
      "stateMutability": "view",
      "type": "function"
    },
    {
      "inputs": [
        {
          "internalType": "address",
          "name": "owner",
          "type": "address"
        },
        {
          "internalType": "address",
          "name": "operator",
          "type": "address"
        }
      ],
      "name": "isApprovedForAll",
      "outputs": [
        {
          "internalType": "bool",
          "name": "",
          "type": "bool"
        }
      ],
      "stateMutability": "view",
      "type": "function"
    },
    {
      "inputs": [],
      "name": "isOwner",
      "outputs": [
        {
          "internalType": "bool",
          "name": "",
          "type": "bool"
        }
      ],
      "stateMutability": "view",
      "type": "function"
    },
    {
      "inputs": [],
      "name": "name",
      "outputs": [
        {
          "internalType": "string",
          "name": "",
          "type": "string"
        }
      ],
      "stateMutability": "view",
      "type": "function"
    },
    {
      "inputs": [
        {
          "internalType": "uint256",
          "name": "",
          "type": "uint256"
        }
      ],
      "name": "names",
      "outputs": [
        {
          "internalType": "string",
          "name": "",
          "type": "string"
        }
      ],
      "stateMutability": "view",
      "type": "function"
    },
    {
      "inputs": [],
      "name": "owner",
      "outputs": [
        {
          "internalType": "address payable",
          "name": "",
          "type": "address"
        }
      ],
      "stateMutability": "view",
      "type": "function"
    },
    {
      "inputs": [
        {
          "internalType": "uint256",
          "name": "tokenId",
          "type": "uint256"
        }
      ],
      "name": "ownerOf",
      "outputs": [
        {
          "internalType": "address",
          "name": "",
          "type": "address"
        }
      ],
      "stateMutability": "view",
      "type": "function"
    },
    {
      "inputs": [
        {
          "internalType": "string",
          "name": "name",
          "type": "string"
        }
      ],
      "name": "price",
      "outputs": [
        {
          "internalType": "uint256",
          "name": "",
          "type": "uint256"
        }
      ],
      "stateMutability": "pure",
      "type": "function"
    },
    {
      "inputs": [
        {
          "internalType": "string",
          "name": "",
          "type": "string"
        }
      ],
      "name": "records",
      "outputs": [
        {
          "internalType": "string",
          "name": "",
          "type": "string"
        }
      ],
      "stateMutability": "view",
      "type": "function"
    },
    {
      "inputs": [
        {
          "internalType": "string",
          "name": "name",
          "type": "string"
        }
      ],
      "name": "register",
      "outputs": [],
      "stateMutability": "payable",
      "type": "function"
    },
    {
      "inputs": [
        {
          "internalType": "address",
          "name": "from",
          "type": "address"
        },
        {
          "internalType": "address",
          "name": "to",
          "type": "address"
        },
        {
          "internalType": "uint256",
          "name": "tokenId",
          "type": "uint256"
        }
      ],
      "name": "safeTransferFrom",
      "outputs": [],
      "stateMutability": "nonpayable",
      "type": "function"
    },
    {
      "inputs": [
        {
          "internalType": "address",
          "name": "from",
          "type": "address"
        },
        {
          "internalType": "address",
          "name": "to",
          "type": "address"
        },
        {
          "internalType": "uint256",
          "name": "tokenId",
          "type": "uint256"
        },
        {
          "internalType": "bytes",
          "name": "_data",
          "type": "bytes"
        }
      ],
      "name": "safeTransferFrom",
      "outputs": [],
      "stateMutability": "nonpayable",
      "type": "function"
    },
    {
      "inputs": [
        {
          "internalType": "address",
          "name": "operator",
          "type": "address"
        },
        {
          "internalType": "bool",
          "name": "approved",
          "type": "bool"
        }
      ],
      "name": "setApprovalForAll",
      "outputs": [],
      "stateMutability": "nonpayable",
      "type": "function"
    },
    {
      "inputs": [
        {
          "internalType": "string",
          "name": "name",
          "type": "string"
        },
        {
          "internalType": "string",
          "name": "record",
          "type": "string"
        }
      ],
      "name": "setRecord",
      "outputs": [],
      "stateMutability": "nonpayable",
      "type": "function"
    },
    {
      "inputs": [
        {
          "internalType": "bytes4",
          "name": "interfaceId",
          "type": "bytes4"
        }
      ],
      "name": "supportsInterface",
      "outputs": [
        {
          "internalType": "bool",
          "name": "",
          "type": "bool"
        }
      ],
      "stateMutability": "view",
      "type": "function"
    },
    {
      "inputs": [],
      "name": "symbol",
      "outputs": [
        {
          "internalType": "string",
          "name": "",
          "type": "string"
        }
      ],
      "stateMutability": "view",
      "type": "function"
    },
    {
      "inputs": [],
      "name": "tld",
      "outputs": [
        {
          "internalType": "string",
          "name": "",
          "type": "string"
        }
      ],
      "stateMutability": "view",
      "type": "function"
    },
    {
      "inputs": [
        {
          "internalType": "uint256",
          "name": "tokenId",
          "type": "uint256"
        }
      ],
      "name": "tokenURI",
      "outputs": [
        {
          "internalType": "string",
          "name": "",
          "type": "string"
        }
      ],
      "stateMutability": "view",
      "type": "function"
    },
    {
      "inputs": [
        {
          "internalType": "address",
          "name": "from",
          "type": "address"
        },
        {
          "internalType": "address",
          "name": "to",
          "type": "address"
        },
        {
          "internalType": "uint256",
          "name": "tokenId",
          "type": "uint256"
        }
      ],
      "name": "transferFrom",
      "outputs": [],
      "stateMutability": "nonpayable",
      "type": "function"
    },
    {
      "inputs": [
        {
          "internalType": "string",
          "name": "name",
          "type": "string"
        }
      ],
      "name": "valid",
      "outputs": [
        {
          "internalType": "bool",
          "name": "",
          "type": "bool"
        }
      ],
      "stateMutability": "pure",
      "type": "function"
    },
    {
      "inputs": [],
      "name": "withdraw",
      "outputs": [],
      "stateMutability": "nonpayable",
      "type": "function"
    }
  ],
  "bytecode": "0x6080604052604051806108a0016040528061086b81526020016200538a61086b91396009908051906020019062000038929190620002c8565b506040518060400160405280600d81526020017f3c2f746578743e3c2f7376673e00000000000000000000000000000000000000815250600a908051906020019062000086929190620002c8565b5060405162005bf538038062005bf58339818101604052810190620000ac919062000515565b6040518060400160405280601781526020017f4d6574616c7665727365204e616d6520536572766963650000000000000000008152506040518060400160405280600481526020017f4d564e5300000000000000000000000000000000000000000000000000000000815250816000908051906020019062000130929190620002c8565b50806001908051906020019062000149929190620002c8565b50505033600e60006101000a81548173ffffffffffffffffffffffffffffffffffffffff021916908373ffffffffffffffffffffffffffffffffffffffff1602179055508060089080519060200190620001a5929190620002c8565b50620001f26040518060400160405280601881526020017f2573206e616d652073657276696365206465706c6f796564000000000000000081525082620001f960201b62001b5f1760201c565b5062000663565b6200029b828260405160240162000212929190620005c3565b6040516020818303038152906040527f4b5c4277000000000000000000000000000000000000000000000000000000007bffffffffffffffffffffffffffffffffffffffffffffffffffffffff19166020820180517bffffffffffffffffffffffffffffffffffffffffffffffffffffffff83818316178352505050506200029f60201b60201c565b5050565b60008151905060006a636f6e736f6c652e6c6f679050602083016000808483855afa5050505050565b828054620002d6906200062d565b90600052602060002090601f016020900481019282620002fa576000855562000346565b82601f106200031557805160ff191683800117855562000346565b8280016001018555821562000346579182015b828111156200034557825182559160200191906001019062000328565b5b50905062000355919062000359565b5090565b5b80821115620003745760008160009055506001016200035a565b5090565b6000604051905090565b600080fd5b600080fd5b600080fd5b600080fd5b6000601f19601f8301169050919050565b7f4e487b7100000000000000000000000000000000000000000000000000000000600052604160045260246000fd5b620003e18262000396565b810181811067ffffffffffffffff82111715620004035762000402620003a7565b5b80604052505050565b60006200041862000378565b9050620004268282620003d6565b919050565b600067ffffffffffffffff821115620004495762000448620003a7565b5b620004548262000396565b9050602081019050919050565b60005b838110156200048157808201518184015260208101905062000464565b8381111562000491576000848401525b50505050565b6000620004ae620004a8846200042b565b6200040c565b905082815260208101848484011115620004cd57620004cc62000391565b5b620004da84828562000461565b509392505050565b600082601f830112620004fa57620004f96200038c565b5b81516200050c84826020860162000497565b91505092915050565b6000602082840312156200052e576200052d62000382565b5b600082015167ffffffffffffffff8111156200054f576200054e62000387565b5b6200055d84828501620004e2565b91505092915050565b600081519050919050565b600082825260208201905092915050565b60006200058f8262000566565b6200059b818562000571565b9350620005ad81856020860162000461565b620005b88162000396565b840191505092915050565b60006040820190508181036000830152620005df818562000582565b90508181036020830152620005f5818462000582565b90509392505050565b7f4e487b7100000000000000000000000000000000000000000000000000000000600052602260045260246000fd5b600060028204905060018216806200064657607f821691505b602082108114156200065d576200065c620005fe565b5b50919050565b614d1780620006736000396000f3fe60806040526004361061019c5760003560e01c806370a08231116100ec578063bf40fac11161008a578063e985e9c511610064578063e985e9c514610624578063f2c298be14610661578063fb825e5f1461067d578063fe2c6198146106a85761019c565b8063bf40fac114610581578063c1880a98146105be578063c87b56dd146105e75761019c565b806395d89b41116100c657806395d89b41146104c75780639791c097146104f2578063a22cb4651461052f578063b88d4fde146105585761019c565b806370a08231146104345780638da5cb5b146104715780638f32d59b1461049c5761019c565b8063264492351161015957806342842e0e1161013357806342842e0e146103545780634622ab031461037d578063541e771d146103ba5780636352211e146103f75761019c565b806326449235146102d55780632d551432146103125780633ccfd60b1461033d5761019c565b806301ffc9a7146101a157806306fdde03146101de578063081812fc14610209578063095ea7b31461024657806311dd88451461026f57806323b872dd146102ac575b600080fd5b3480156101ad57600080fd5b506101c860048036038101906101c39190613044565b6106e5565b6040516101d5919061308c565b60405180910390f35b3480156101ea57600080fd5b506101f36107c7565b6040516102009190613140565b60405180910390f35b34801561021557600080fd5b50610230600480360381019061022b9190613198565b610859565b60405161023d9190613206565b60405180910390f35b34801561025257600080fd5b5061026d6004803603810190610268919061324d565b6108de565b005b34801561027b57600080fd5b50610296600480360381019061029191906132f2565b6109f6565b6040516102a39190613140565b60405180910390f35b3480156102b857600080fd5b506102d360048036038101906102ce919061333f565b610aa9565b005b3480156102e157600080fd5b506102fc60048036038101906102f791906134c2565b610b09565b6040516103099190613206565b60405180910390f35b34801561031e57600080fd5b50610327610b52565b6040516103349190613140565b60405180910390f35b34801561034957600080fd5b50610352610be0565b005b34801561036057600080fd5b5061037b6004803603810190610376919061333f565b610ca6565b005b34801561038957600080fd5b506103a4600480360381019061039f9190613198565b610cc6565b6040516103b19190613140565b60405180910390f35b3480156103c657600080fd5b506103e160048036038101906103dc91906134c2565b610d66565b6040516103ee9190613140565b60405180910390f35b34801561040357600080fd5b5061041e60048036038101906104199190613198565b610e1c565b60405161042b9190613206565b60405180910390f35b34801561044057600080fd5b5061045b6004803603810190610456919061350b565b610ece565b6040516104689190613547565b60405180910390f35b34801561047d57600080fd5b50610486610f86565b6040516104939190613583565b60405180910390f35b3480156104a857600080fd5b506104b1610fac565b6040516104be919061308c565b60405180910390f35b3480156104d357600080fd5b506104dc611004565b6040516104e99190613140565b60405180910390f35b3480156104fe57600080fd5b50610519600480360381019061051491906132f2565b611096565b604051610526919061308c565b60405180910390f35b34801561053b57600080fd5b50610556600480360381019061055191906135ca565b61114a565b005b34801561056457600080fd5b5061057f600480360381019061057a91906136ab565b611160565b005b34801561058d57600080fd5b506105a860048036038101906105a391906132f2565b6111c2565b6040516105b59190613206565b60405180910390f35b3480156105ca57600080fd5b506105e560048036038101906105e0919061372e565b61120d565b005b3480156105f357600080fd5b5061060e60048036038101906106099190613198565b6112f1565b60405161061b9190613140565b60405180910390f35b34801561063057600080fd5b5061064b600480360381019061064691906137af565b611443565b604051610658919061308c565b60405180910390f35b61067b600480360381019061067691906132f2565b6114d7565b005b34801561068957600080fd5b506106926118db565b60405161069f91906138fb565b60405180910390f35b3480156106b457600080fd5b506106cf60048036038101906106ca91906132f2565b611ab9565b6040516106dc9190613547565b60405180910390f35b60007f80ac58cd000000000000000000000000000000000000000000000000000000007bffffffffffffffffffffffffffffffffffffffffffffffffffffffff1916827bffffffffffffffffffffffffffffffffffffffffffffffffffffffff191614806107b057507f5b5e139f000000000000000000000000000000000000000000000000000000007bffffffffffffffffffffffffffffffffffffffffffffffffffffffff1916827bffffffffffffffffffffffffffffffffffffffffffffffffffffffff1916145b806107c057506107bf82611bfb565b5b9050919050565b6060600080546107d69061394c565b80601f01602080910402602001604051908101604052809291908181526020018280546108029061394c565b801561084f5780601f106108245761010080835404028352916020019161084f565b820191906000526020600020905b81548152906001019060200180831161083257829003601f168201915b5050505050905090565b600061086482611c65565b6108a3576040517f08c379a000000000000000000000000000000000000000000000000000000000815260040161089a906139f0565b60405180910390fd5b6004600083815260200190815260200160002060009054906101000a900473ffffffffffffffffffffffffffffffffffffffff169050919050565b60006108e982610e1c565b90508073ffffffffffffffffffffffffffffffffffffffff168373ffffffffffffffffffffffffffffffffffffffff16141561095a576040517f08c379a000000000000000000000000000000000000000000000000000000000815260040161095190613a82565b60405180910390fd5b8073ffffffffffffffffffffffffffffffffffffffff16610979611cd1565b73ffffffffffffffffffffffffffffffffffffffff1614806109a857506109a7816109a2611cd1565b611443565b5b6109e7576040517f08c379a00000000000000000000000000000000000000000000000000000000081526004016109de90613b14565b60405180910390fd5b6109f18383611cd9565b505050565b6060600c8383604051610a0a929190613b64565b90815260200160405180910390208054610a239061394c565b80601f0160208091040260200160405190810160405280929190818152602001828054610a4f9061394c565b8015610a9c5780601f10610a7157610100808354040283529160200191610a9c565b820191906000526020600020905b815481529060010190602001808311610a7f57829003601f168201915b5050505050905092915050565b610aba610ab4611cd1565b82611d92565b610af9576040517f08c379a0000000000000000000000000000000000000000000000000000000008152600401610af090613bef565b60405180910390fd5b610b04838383611e70565b505050565b600b818051602081018201805184825260208301602085012081835280955050505050506000915054906101000a900473ffffffffffffffffffffffffffffffffffffffff1681565b60088054610b5f9061394c565b80601f0160208091040260200160405190810160405280929190818152602001828054610b8b9061394c565b8015610bd85780601f10610bad57610100808354040283529160200191610bd8565b820191906000526020600020905b815481529060010190602001808311610bbb57829003601f168201915b505050505081565b610be8610fac565b610bf157600080fd5b600047905060003373ffffffffffffffffffffffffffffffffffffffff1682604051610c1c90613c40565b60006040518083038185875af1925050503d8060008114610c59576040519150601f19603f3d011682016040523d82523d6000602084013e610c5e565b606091505b5050905080610ca2576040517f08c379a0000000000000000000000000000000000000000000000000000000008152600401610c9990613ca1565b60405180910390fd5b5050565b610cc183838360405180602001604052806000815250611160565b505050565b600d6020528060005260406000206000915090508054610ce59061394c565b80601f0160208091040260200160405190810160405280929190818152602001828054610d119061394c565b8015610d5e5780601f10610d3357610100808354040283529160200191610d5e565b820191906000526020600020905b815481529060010190602001808311610d4157829003601f168201915b505050505081565b600c818051602081018201805184825260208301602085012081835280955050505050506000915090508054610d9b9061394c565b80601f0160208091040260200160405190810160405280929190818152602001828054610dc79061394c565b8015610e145780601f10610de957610100808354040283529160200191610e14565b820191906000526020600020905b815481529060010190602001808311610df757829003601f168201915b505050505081565b6000806002600084815260200190815260200160002060009054906101000a900473ffffffffffffffffffffffffffffffffffffffff169050600073ffffffffffffffffffffffffffffffffffffffff168173ffffffffffffffffffffffffffffffffffffffff161415610ec5576040517f08c379a0000000000000000000000000000000000000000000000000000000008152600401610ebc90613d33565b60405180910390fd5b80915050919050565b60008073ffffffffffffffffffffffffffffffffffffffff168273ffffffffffffffffffffffffffffffffffffffff161415610f3f576040517f08c379a0000000000000000000000000000000000000000000000000000000008152600401610f3690613dc5565b60405180910390fd5b600360008373ffffffffffffffffffffffffffffffffffffffff1673ffffffffffffffffffffffffffffffffffffffff168152602001908152602001600020549050919050565b600e60009054906101000a900473ffffffffffffffffffffffffffffffffffffffff1681565b6000600e60009054906101000a900473ffffffffffffffffffffffffffffffffffffffff1673ffffffffffffffffffffffffffffffffffffffff163373ffffffffffffffffffffffffffffffffffffffff1614905090565b6060600180546110139061394c565b80601f016020809104026020016040519081016040528092919081815260200182805461103f9061394c565b801561108c5780601f106110615761010080835404028352916020019161108c565b820191906000526020600020905b81548152906001019060200180831161106f57829003601f168201915b5050505050905090565b600060036110e784848080601f016020809104026020016040519081016040528093929190818152602001838380828437600081840152601f19601f820116905080830192505050505050506120d7565b101580156111425750600a61113f84848080601f016020809104026020016040519081016040528093929190818152602001838380828437600081840152601f19601f820116905080830192505050505050506120d7565b11155b905092915050565b61115c611155611cd1565b838361228c565b5050565b61117161116b611cd1565b83611d92565b6111b0576040517f08c379a00000000000000000000000000000000000000000000000000000000081526004016111a790613bef565b60405180910390fd5b6111bc848484846123f9565b50505050565b6000600b83836040516111d6929190613b64565b908152602001604051809103902060009054906101000a900473ffffffffffffffffffffffffffffffffffffffff16905092915050565b3373ffffffffffffffffffffffffffffffffffffffff16600b8585604051611236929190613b64565b908152602001604051809103902060009054906101000a900473ffffffffffffffffffffffffffffffffffffffff1673ffffffffffffffffffffffffffffffffffffffff16146112bb576040517f08c379a00000000000000000000000000000000000000000000000000000000081526004016112b290613e7d565b60405180910390fd5b8181600c86866040516112cf929190613b64565b908152602001604051809103902091906112ea929190612eaf565b5050505050565b60606112fc82611c65565b61133b576040517f08c379a000000000000000000000000000000000000000000000000000000000815260040161133290613f0f565b60405180910390fd5b600060066000848152602001908152602001600020805461135b9061394c565b80601f01602080910402602001604051908101604052809291908181526020018280546113879061394c565b80156113d45780601f106113a9576101008083540402835291602001916113d4565b820191906000526020600020905b8154815290600101906020018083116113b757829003601f168201915b5050505050905060006113e5612455565b90506000815114156113fb57819250505061143e565b600082511115611430578082604051602001611418929190613f60565b6040516020818303038152906040529250505061143e565b6114398461246c565b925050505b919050565b6000600560008473ffffffffffffffffffffffffffffffffffffffff1673ffffffffffffffffffffffffffffffffffffffff16815260200190815260200160002060008373ffffffffffffffffffffffffffffffffffffffff1673ffffffffffffffffffffffffffffffffffffffff16815260200190815260200160002060009054906101000a900460ff16905092915050565b600073ffffffffffffffffffffffffffffffffffffffff16600b8383604051611501929190613b64565b908152602001604051809103902060009054906101000a900473ffffffffffffffffffffffffffffffffffffffff1673ffffffffffffffffffffffffffffffffffffffff161461155057600080fd5b600061155c8383611ab9565b9050803410156115a1576040517f08c379a000000000000000000000000000000000000000000000000000000000815260040161159890613fd0565b60405180910390fd5b6000838360086040516020016115b9939291906140d0565b60405160208183030381529060405290506000600982600a6040516020016115e393929190614101565b604051602081830303815290604052905060006116006007612513565b9050600061165187878080601f016020809104026020016040519081016040528093929190818152602001838380828437600081840152601f19601f820116905080830192505050505050506120d7565b9050600061165e82612521565b9050611752604051806060016040528060318152602001614c386031913989898080601f016020809104026020016040519081016040528093929190818152602001838380828437600081840152601f19601f82011690508083019250505050505050600880546116ce9061394c565b80601f01602080910402602001604051908101604052809291908181526020018280546116fa9061394c565b80156117475780601f1061171c57610100808354040283529160200191611747565b820191906000526020600020905b81548152906001019060200180831161172a57829003601f168201915b505050505086612682565b60006117888661176187612724565b84604051602001611774939291906142ae565b604051602081830303815290604052612724565b905060008160405160200161179d9190614357565b60405160208183030381529060405290506117cf604051806060016040528060398152602001614bff603991396128bc565b61180e6040518060400160405280600e81526020017f46696e616c20746f6b656e55524900000000000000000000000000000000000081525082611b5f565b61182f604051806060016040528060398152602001614c69603991396128bc565b6118393386612955565b6118438582612973565b33600b8b8b604051611856929190613b64565b908152602001604051809103902060006101000a81548173ffffffffffffffffffffffffffffffffffffffff021916908373ffffffffffffffffffffffffffffffffffffffff1602179055508989600d600088815260200190815260200160002091906118c4929190612eaf565b506118cf60076129e7565b50505050505050505050565b606061191b6040518060400160405280601f81526020017f47657474696e6720616c6c206e616d65732066726f6d20636f6e7472616374008152506128bc565b60006119276007612513565b67ffffffffffffffff8111156119405761193f613397565b5b60405190808252806020026020018201604052801561197357816020015b606081526020019060019003908161195e5790505b50905060005b6119836007612513565b811015611ab157600d600082815260200190815260200160002080546119a89061394c565b80601f01602080910402602001604051908101604052809291908181526020018280546119d49061394c565b8015611a215780601f106119f657610100808354040283529160200191611a21565b820191906000526020600020905b815481529060010190602001808311611a0457829003601f168201915b5050505050828281518110611a3957611a38614379565b5b6020026020010181905250611a9e6040518060400160405280601781526020017f4e616d6520666f7220746f6b656e20256420697320257300000000000000000081525082848481518110611a9157611a90614379565b5b60200260200101516129fd565b8080611aa9906143d7565b915050611979565b508091505090565b600080611b0984848080601f016020809104026020016040519081016040528093929190818152602001838380828437600081840152601f19601f820116905080830192505050505050506120d7565b905060008111611b1857600080fd5b6003811415611b32576706f05b59d3b20000915050611b59565b6004811415611b4c57670429d069189e0000915050611b59565b67016345785d8a00009150505b92915050565b611bf78282604051602401611b75929190614420565b6040516020818303038152906040527f4b5c4277000000000000000000000000000000000000000000000000000000007bffffffffffffffffffffffffffffffffffffffffffffffffffffffff19166020820180517bffffffffffffffffffffffffffffffffffffffffffffffffffffffff8381831617835250505050612a9c565b5050565b60007f01ffc9a7000000000000000000000000000000000000000000000000000000007bffffffffffffffffffffffffffffffffffffffffffffffffffffffff1916827bffffffffffffffffffffffffffffffffffffffffffffffffffffffff1916149050919050565b60008073ffffffffffffffffffffffffffffffffffffffff166002600084815260200190815260200160002060009054906101000a900473ffffffffffffffffffffffffffffffffffffffff1673ffffffffffffffffffffffffffffffffffffffff1614159050919050565b600033905090565b816004600083815260200190815260200160002060006101000a81548173ffffffffffffffffffffffffffffffffffffffff021916908373ffffffffffffffffffffffffffffffffffffffff160217905550808273ffffffffffffffffffffffffffffffffffffffff16611d4c83610e1c565b73ffffffffffffffffffffffffffffffffffffffff167f8c5be1e5ebec7d5bd14f71427d1e84f3dd0314c0f7b2291e5b200ac8c7c3b92560405160405180910390a45050565b6000611d9d82611c65565b611ddc576040517f08c379a0000000000000000000000000000000000000000000000000000000008152600401611dd3906144c9565b60405180910390fd5b6000611de783610e1c565b90508073ffffffffffffffffffffffffffffffffffffffff168473ffffffffffffffffffffffffffffffffffffffff161480611e5657508373ffffffffffffffffffffffffffffffffffffffff16611e3e84610859565b73ffffffffffffffffffffffffffffffffffffffff16145b80611e675750611e668185611443565b5b91505092915050565b8273ffffffffffffffffffffffffffffffffffffffff16611e9082610e1c565b73ffffffffffffffffffffffffffffffffffffffff1614611ee6576040517f08c379a0000000000000000000000000000000000000000000000000000000008152600401611edd9061455b565b60405180910390fd5b600073ffffffffffffffffffffffffffffffffffffffff168273ffffffffffffffffffffffffffffffffffffffff161415611f56576040517f08c379a0000000000000000000000000000000000000000000000000000000008152600401611f4d906145ed565b60405180910390fd5b611f61838383612ac5565b611f6c600082611cd9565b6001600360008573ffffffffffffffffffffffffffffffffffffffff1673ffffffffffffffffffffffffffffffffffffffff1681526020019081526020016000206000828254611fbc919061460d565b925050819055506001600360008473ffffffffffffffffffffffffffffffffffffffff1673ffffffffffffffffffffffffffffffffffffffff16815260200190815260200160002060008282546120139190614641565b92505081905550816002600083815260200190815260200160002060006101000a81548173ffffffffffffffffffffffffffffffffffffffff021916908373ffffffffffffffffffffffffffffffffffffffff160217905550808273ffffffffffffffffffffffffffffffffffffffff168473ffffffffffffffffffffffffffffffffffffffff167fddf252ad1be2c89b69c2b068fc378daa952ba7f163c4a11628f55a4df523b3ef60405160405180910390a46120d2838383612aca565b505050565b60008060008084519050600092505b8082101561228157600085838151811061210357612102614379565b5b602001015160f81c60f81b9050608060f81b817effffffffffffffffffffffffffffffffffffffffffffffffffffffffffffff191610156121525760018361214b9190614641565b925061226d565b60e060f81b817effffffffffffffffffffffffffffffffffffffffffffffffffffffffffffff191610156121945760028361218d9190614641565b925061226c565b60f060f81b817effffffffffffffffffffffffffffffffffffffffffffffffffffffffffffff191610156121d6576003836121cf9190614641565b925061226b565b60f8801b817effffffffffffffffffffffffffffffffffffffffffffffffffffffffffffff19161015612217576004836122109190614641565b925061226a565b60fc60f81b817effffffffffffffffffffffffffffffffffffffffffffffffffffffffffffff19161015612259576005836122529190614641565b9250612269565b6006836122669190614641565b92505b5b5b5b5b508280612279906143d7565b9350506120e6565b829350505050919050565b8173ffffffffffffffffffffffffffffffffffffffff168373ffffffffffffffffffffffffffffffffffffffff1614156122fb576040517f08c379a00000000000000000000000000000000000000000000000000000000081526004016122f2906146e3565b60405180910390fd5b80600560008573ffffffffffffffffffffffffffffffffffffffff1673ffffffffffffffffffffffffffffffffffffffff16815260200190815260200160002060008473ffffffffffffffffffffffffffffffffffffffff1673ffffffffffffffffffffffffffffffffffffffff16815260200190815260200160002060006101000a81548160ff0219169083151502179055508173ffffffffffffffffffffffffffffffffffffffff168373ffffffffffffffffffffffffffffffffffffffff167f17307eab39ab6107e8899845ad3d59bd9653f200f220920489ca2b5937696c31836040516123ec919061308c565b60405180910390a3505050565b612404848484611e70565b61241084848484612acf565b61244f576040517f08c379a000000000000000000000000000000000000000000000000000000000815260040161244690614775565b60405180910390fd5b50505050565b606060405180602001604052806000815250905090565b606061247782611c65565b6124b6576040517f08c379a00000000000000000000000000000000000000000000000000000000081526004016124ad90614807565b60405180910390fd5b60006124c0612455565b905060008151116124e0576040518060200160405280600081525061250b565b806124ea84612521565b6040516020016124fb929190613f60565b6040516020818303038152906040525b915050919050565b600081600001549050919050565b60606000821415612569576040518060400160405280600181526020017f3000000000000000000000000000000000000000000000000000000000000000815250905061267d565b600082905060005b6000821461259b578080612584906143d7565b915050600a826125949190614856565b9150612571565b60008167ffffffffffffffff8111156125b7576125b6613397565b5b6040519080825280601f01601f1916602001820160405280156125e95781602001600182028036833780820191505090505b5090505b6000851461267657600182612602919061460d565b9150600a856126119190614887565b603061261d9190614641565b60f81b81838151811061263357612632614379565b5b60200101907effffffffffffffffffffffffffffffffffffffffffffffffffffffffffffff1916908160001a905350600a8561266f9190614856565b94506125ed565b8093505050505b919050565b61271e8484848460405160240161269c94939291906148b8565b6040516020818303038152906040527f9fd009f5000000000000000000000000000000000000000000000000000000007bffffffffffffffffffffffffffffffffffffffffffffffffffffffff19166020820180517bffffffffffffffffffffffffffffffffffffffffffffffffffffffff8381831617835250505050612a9c565b50505050565b6060600082519050600081141561274d57604051806020016040528060008152509150506128b7565b6000600360028361275e9190614641565b6127689190614856565b60046127749190614912565b905060006020826127859190614641565b67ffffffffffffffff81111561279e5761279d613397565b5b6040519080825280601f01601f1916602001820160405280156127d05781602001600182028036833780820191505090505b5090506000604051806060016040528060408152602001614ca2604091399050600181016020830160005b868110156128745760038101905062ffffff818a015116603f8160121c168401518060081b905060ff603f83600c1c1686015116810190508060081b905060ff603f8360061c1686015116810190508060081b905060ff603f831686015116810190508060e01b905080845260048401935050506127fb565b50600386066001811461288e576002811461289e576128a9565b613d3d60f01b60028303526128a9565b603d60f81b60018303525b508484525050819450505050505b919050565b612952816040516024016128d09190613140565b6040516020818303038152906040527f41304fac000000000000000000000000000000000000000000000000000000007bffffffffffffffffffffffffffffffffffffffffffffffffffffffff19166020820180517bffffffffffffffffffffffffffffffffffffffffffffffffffffffff8381831617835250505050612a9c565b50565b61296f828260405180602001604052806000815250612c57565b5050565b61297c82611c65565b6129bb576040517f08c379a00000000000000000000000000000000000000000000000000000000081526004016129b2906149de565b60405180910390fd5b806006600084815260200190815260200160002090805190602001906129e2929190612f35565b505050565b6001816000016000828254019250508190555050565b612a97838383604051602401612a15939291906149fe565b6040516020818303038152906040527fa3f5c739000000000000000000000000000000000000000000000000000000007bffffffffffffffffffffffffffffffffffffffffffffffffffffffff19166020820180517bffffffffffffffffffffffffffffffffffffffffffffffffffffffff8381831617835250505050612a9c565b505050565b60008151905060006a636f6e736f6c652e6c6f679050602083016000808483855afa5050505050565b505050565b505050565b6000612af08473ffffffffffffffffffffffffffffffffffffffff16612cb2565b15612c4a578373ffffffffffffffffffffffffffffffffffffffff1663150b7a02612b19611cd1565b8786866040518563ffffffff1660e01b8152600401612b3b9493929190614a98565b6020604051808303816000875af1925050508015612b7757506040513d601f19601f82011682018060405250810190612b749190614af9565b60015b612bfa573d8060008114612ba7576040519150601f19603f3d011682016040523d82523d6000602084013e612bac565b606091505b50600081511415612bf2576040517f08c379a0000000000000000000000000000000000000000000000000000000008152600401612be990614775565b60405180910390fd5b805181602001fd5b63150b7a0260e01b7bffffffffffffffffffffffffffffffffffffffffffffffffffffffff1916817bffffffffffffffffffffffffffffffffffffffffffffffffffffffff191614915050612c4f565b600190505b949350505050565b612c618383612cd5565b612c6e6000848484612acf565b612cad576040517f08c379a0000000000000000000000000000000000000000000000000000000008152600401612ca490614775565b60405180910390fd5b505050565b6000808273ffffffffffffffffffffffffffffffffffffffff163b119050919050565b600073ffffffffffffffffffffffffffffffffffffffff168273ffffffffffffffffffffffffffffffffffffffff161415612d45576040517f08c379a0000000000000000000000000000000000000000000000000000000008152600401612d3c90614b72565b60405180910390fd5b612d4e81611c65565b15612d8e576040517f08c379a0000000000000000000000000000000000000000000000000000000008152600401612d8590614bde565b60405180910390fd5b612d9a60008383612ac5565b6001600360008473ffffffffffffffffffffffffffffffffffffffff1673ffffffffffffffffffffffffffffffffffffffff1681526020019081526020016000206000828254612dea9190614641565b92505081905550816002600083815260200190815260200160002060006101000a81548173ffffffffffffffffffffffffffffffffffffffff021916908373ffffffffffffffffffffffffffffffffffffffff160217905550808273ffffffffffffffffffffffffffffffffffffffff16600073ffffffffffffffffffffffffffffffffffffffff167fddf252ad1be2c89b69c2b068fc378daa952ba7f163c4a11628f55a4df523b3ef60405160405180910390a4612eab60008383612aca565b5050565b828054612ebb9061394c565b90600052602060002090601f016020900481019282612edd5760008555612f24565b82601f10612ef657803560ff1916838001178555612f24565b82800160010185558215612f24579182015b82811115612f23578235825591602001919060010190612f08565b5b509050612f319190612fbb565b5090565b828054612f419061394c565b90600052602060002090601f016020900481019282612f635760008555612faa565b82601f10612f7c57805160ff1916838001178555612faa565b82800160010185558215612faa579182015b82811115612fa9578251825591602001919060010190612f8e565b5b509050612fb79190612fbb565b5090565b5b80821115612fd4576000816000905550600101612fbc565b5090565b6000604051905090565b600080fd5b600080fd5b60007fffffffff0000000000000000000000000000000000000000000000000000000082169050919050565b61302181612fec565b811461302c57600080fd5b50565b60008135905061303e81613018565b92915050565b60006020828403121561305a57613059612fe2565b5b60006130688482850161302f565b91505092915050565b60008115159050919050565b61308681613071565b82525050565b60006020820190506130a1600083018461307d565b92915050565b600081519050919050565b600082825260208201905092915050565b60005b838110156130e15780820151818401526020810190506130c6565b838111156130f0576000848401525b50505050565b6000601f19601f8301169050919050565b6000613112826130a7565b61311c81856130b2565b935061312c8185602086016130c3565b613135816130f6565b840191505092915050565b6000602082019050818103600083015261315a8184613107565b905092915050565b6000819050919050565b61317581613162565b811461318057600080fd5b50565b6000813590506131928161316c565b92915050565b6000602082840312156131ae576131ad612fe2565b5b60006131bc84828501613183565b91505092915050565b600073ffffffffffffffffffffffffffffffffffffffff82169050919050565b60006131f0826131c5565b9050919050565b613200816131e5565b82525050565b600060208201905061321b60008301846131f7565b92915050565b61322a816131e5565b811461323557600080fd5b50565b60008135905061324781613221565b92915050565b6000806040838503121561326457613263612fe2565b5b600061327285828601613238565b925050602061328385828601613183565b9150509250929050565b600080fd5b600080fd5b600080fd5b60008083601f8401126132b2576132b161328d565b5b8235905067ffffffffffffffff8111156132cf576132ce613292565b5b6020830191508360018202830111156132eb576132ea613297565b5b9250929050565b6000806020838503121561330957613308612fe2565b5b600083013567ffffffffffffffff81111561332757613326612fe7565b5b6133338582860161329c565b92509250509250929050565b60008060006060848603121561335857613357612fe2565b5b600061336686828701613238565b935050602061337786828701613238565b925050604061338886828701613183565b9150509250925092565b600080fd5b7f4e487b7100000000000000000000000000000000000000000000000000000000600052604160045260246000fd5b6133cf826130f6565b810181811067ffffffffffffffff821117156133ee576133ed613397565b5b80604052505050565b6000613401612fd8565b905061340d82826133c6565b919050565b600067ffffffffffffffff82111561342d5761342c613397565b5b613436826130f6565b9050602081019050919050565b82818337600083830152505050565b600061346561346084613412565b6133f7565b90508281526020810184848401111561348157613480613392565b5b61348c848285613443565b509392505050565b600082601f8301126134a9576134a861328d565b5b81356134b9848260208601613452565b91505092915050565b6000602082840312156134d8576134d7612fe2565b5b600082013567ffffffffffffffff8111156134f6576134f5612fe7565b5b61350284828501613494565b91505092915050565b60006020828403121561352157613520612fe2565b5b600061352f84828501613238565b91505092915050565b61354181613162565b82525050565b600060208201905061355c6000830184613538565b92915050565b600061356d826131c5565b9050919050565b61357d81613562565b82525050565b60006020820190506135986000830184613574565b92915050565b6135a781613071565b81146135b257600080fd5b50565b6000813590506135c48161359e565b92915050565b600080604083850312156135e1576135e0612fe2565b5b60006135ef85828601613238565b9250506020613600858286016135b5565b9150509250929050565b600067ffffffffffffffff82111561362557613624613397565b5b61362e826130f6565b9050602081019050919050565b600061364e6136498461360a565b6133f7565b90508281526020810184848401111561366a57613669613392565b5b613675848285613443565b509392505050565b600082601f8301126136925761369161328d565b5b81356136a284826020860161363b565b91505092915050565b600080600080608085870312156136c5576136c4612fe2565b5b60006136d387828801613238565b94505060206136e487828801613238565b93505060406136f587828801613183565b925050606085013567ffffffffffffffff81111561371657613715612fe7565b5b6137228782880161367d565b91505092959194509250565b6000806000806040858703121561374857613747612fe2565b5b600085013567ffffffffffffffff81111561376657613765612fe7565b5b6137728782880161329c565b9450945050602085013567ffffffffffffffff81111561379557613794612fe7565b5b6137a18782880161329c565b925092505092959194509250565b600080604083850312156137c6576137c5612fe2565b5b60006137d485828601613238565b92505060206137e585828601613238565b9150509250929050565b600081519050919050565b600082825260208201905092915050565b6000819050602082019050919050565b600082825260208201905092915050565b6000613837826130a7565b613841818561381b565b93506138518185602086016130c3565b61385a816130f6565b840191505092915050565b6000613871838361382c565b905092915050565b6000602082019050919050565b6000613891826137ef565b61389b81856137fa565b9350836020820285016138ad8561380b565b8060005b858110156138e957848403895281516138ca8582613865565b94506138d583613879565b925060208a019950506001810190506138b1565b50829750879550505050505092915050565b600060208201905081810360008301526139158184613886565b905092915050565b7f4e487b7100000000000000000000000000000000000000000000000000000000600052602260045260246000fd5b6000600282049050600182168061396457607f821691505b602082108114156139785761397761391d565b5b50919050565b7f4552433732313a20617070726f76656420717565727920666f72206e6f6e657860008201527f697374656e7420746f6b656e0000000000000000000000000000000000000000602082015250565b60006139da602c836130b2565b91506139e58261397e565b604082019050919050565b60006020820190508181036000830152613a09816139cd565b9050919050565b7f4552433732313a20617070726f76616c20746f2063757272656e74206f776e6560008201527f7200000000000000000000000000000000000000000000000000000000000000602082015250565b6000613a6c6021836130b2565b9150613a7782613a10565b604082019050919050565b60006020820190508181036000830152613a9b81613a5f565b9050919050565b7f4552433732313a20617070726f76652063616c6c6572206973206e6f74206f7760008201527f6e6572206e6f7220617070726f76656420666f7220616c6c0000000000000000602082015250565b6000613afe6038836130b2565b9150613b0982613aa2565b604082019050919050565b60006020820190508181036000830152613b2d81613af1565b9050919050565b600081905092915050565b6000613b4b8385613b34565b9350613b58838584613443565b82840190509392505050565b6000613b71828486613b3f565b91508190509392505050565b7f4552433732313a207472616e736665722063616c6c6572206973206e6f74206f60008201527f776e6572206e6f7220617070726f766564000000000000000000000000000000602082015250565b6000613bd96031836130b2565b9150613be482613b7d565b604082019050919050565b60006020820190508181036000830152613c0881613bcc565b9050919050565b600081905092915050565b50565b6000613c2a600083613c0f565b9150613c3582613c1a565b600082019050919050565b6000613c4b82613c1d565b9150819050919050565b7f4661696c656420746f207769746864726177204d617469630000000000000000600082015250565b6000613c8b6018836130b2565b9150613c9682613c55565b602082019050919050565b60006020820190508181036000830152613cba81613c7e565b9050919050565b7f4552433732313a206f776e657220717565727920666f72206e6f6e657869737460008201527f656e7420746f6b656e0000000000000000000000000000000000000000000000602082015250565b6000613d1d6029836130b2565b9150613d2882613cc1565b604082019050919050565b60006020820190508181036000830152613d4c81613d10565b9050919050565b7f4552433732313a2062616c616e636520717565727920666f7220746865207a6560008201527f726f206164647265737300000000000000000000000000000000000000000000602082015250565b6000613daf602a836130b2565b9150613dba82613d53565b604082019050919050565b60006020820190508181036000830152613dde81613da2565b9050919050565b7f547279696e6720746f206d6f64696679206120646f6d61696e2074686174206860008201527f6173206265656e207265676973746572656420746f20736f6d656f6e6520656c60208201527f73652e0000000000000000000000000000000000000000000000000000000000604082015250565b6000613e676043836130b2565b9150613e7282613de5565b606082019050919050565b60006020820190508181036000830152613e9681613e5a565b9050919050565b7f45524337323155524953746f726167653a2055524920717565727920666f722060008201527f6e6f6e6578697374656e7420746f6b656e000000000000000000000000000000602082015250565b6000613ef96031836130b2565b9150613f0482613e9d565b604082019050919050565b60006020820190508181036000830152613f2881613eec565b9050919050565b6000613f3a826130a7565b613f448185613b34565b9350613f548185602086016130c3565b80840191505092915050565b6000613f6c8285613f2f565b9150613f788284613f2f565b91508190509392505050565b7f4e6f7420656e6f756768204d6174696320706169640000000000000000000000600082015250565b6000613fba6015836130b2565b9150613fc582613f84565b602082019050919050565b60006020820190508181036000830152613fe981613fad565b9050919050565b7f2e00000000000000000000000000000000000000000000000000000000000000600082015250565b6000614026600183613b34565b915061403182613ff0565b600182019050919050565b60008190508160005260206000209050919050565b6000815461405e8161394c565b6140688186613b34565b945060018216600081146140835760018114614094576140c7565b60ff198316865281860193506140c7565b61409d8561403c565b60005b838110156140bf578154818901526001820191506020810190506140a0565b838801955050505b50505092915050565b60006140dd828587613b3f565b91506140e882614019565b91506140f48284614051565b9150819050949350505050565b600061410d8286614051565b91506141198285613f2f565b91506141258284614051565b9150819050949350505050565b7f7b226e616d65223a202200000000000000000000000000000000000000000000600082015250565b6000614168600a83613b34565b915061417382614132565b600a82019050919050565b7f222c20226465736372697074696f6e223a20224120646f6d61696e206f6e207460008201527f6865205061747465726e206e616d652073657276696365222c2022696d61676560208201527f223a2022646174613a696d6167652f7376672b786d6c3b6261736536342c0000604082015250565b6000614200605e83613b34565b915061420b8261417e565b605e82019050919050565b7f222c226c656e677468223a220000000000000000000000000000000000000000600082015250565b600061424c600c83613b34565b915061425782614216565b600c82019050919050565b7f227d000000000000000000000000000000000000000000000000000000000000600082015250565b6000614298600283613b34565b91506142a382614262565b600282019050919050565b60006142b98261415b565b91506142c58286613f2f565b91506142d0826141f3565b91506142dc8285613f2f565b91506142e78261423f565b91506142f38284613f2f565b91506142fe8261428b565b9150819050949350505050565b7f646174613a6170706c69636174696f6e2f6a736f6e3b6261736536342c000000600082015250565b6000614341601d83613b34565b915061434c8261430b565b601d82019050919050565b600061436282614334565b915061436e8284613f2f565b915081905092915050565b7f4e487b7100000000000000000000000000000000000000000000000000000000600052603260045260246000fd5b7f4e487b7100000000000000000000000000000000000000000000000000000000600052601160045260246000fd5b60006143e282613162565b91507fffffffffffffffffffffffffffffffffffffffffffffffffffffffffffffffff821415614415576144146143a8565b5b600182019050919050565b6000604082019050818103600083015261443a8185613107565b9050818103602083015261444e8184613107565b90509392505050565b7f4552433732313a206f70657261746f7220717565727920666f72206e6f6e657860008201527f697374656e7420746f6b656e0000000000000000000000000000000000000000602082015250565b60006144b3602c836130b2565b91506144be82614457565b604082019050919050565b600060208201905081810360008301526144e2816144a6565b9050919050565b7f4552433732313a207472616e736665722066726f6d20696e636f72726563742060008201527f6f776e6572000000000000000000000000000000000000000000000000000000602082015250565b60006145456025836130b2565b9150614550826144e9565b604082019050919050565b6000602082019050818103600083015261457481614538565b9050919050565b7f4552433732313a207472616e7366657220746f20746865207a65726f2061646460008201527f7265737300000000000000000000000000000000000000000000000000000000602082015250565b60006145d76024836130b2565b91506145e28261457b565b604082019050919050565b60006020820190508181036000830152614606816145ca565b9050919050565b600061461882613162565b915061462383613162565b925082821015614636576146356143a8565b5b828203905092915050565b600061464c82613162565b915061465783613162565b9250827fffffffffffffffffffffffffffffffffffffffffffffffffffffffffffffffff0382111561468c5761468b6143a8565b5b828201905092915050565b7f4552433732313a20617070726f766520746f2063616c6c657200000000000000600082015250565b60006146cd6019836130b2565b91506146d882614697565b602082019050919050565b600060208201905081810360008301526146fc816146c0565b9050919050565b7f4552433732313a207472616e7366657220746f206e6f6e20455243373231526560008201527f63656976657220696d706c656d656e7465720000000000000000000000000000602082015250565b600061475f6032836130b2565b915061476a82614703565b604082019050919050565b6000602082019050818103600083015261478e81614752565b9050919050565b7f4552433732314d657461646174613a2055524920717565727920666f72206e6f60008201527f6e6578697374656e7420746f6b656e0000000000000000000000000000000000602082015250565b60006147f1602f836130b2565b91506147fc82614795565b604082019050919050565b60006020820190508181036000830152614820816147e4565b9050919050565b7f4e487b7100000000000000000000000000000000000000000000000000000000600052601260045260246000fd5b600061486182613162565b915061486c83613162565b92508261487c5761487b614827565b5b828204905092915050565b600061489282613162565b915061489d83613162565b9250826148ad576148ac614827565b5b828206905092915050565b600060808201905081810360008301526148d28187613107565b905081810360208301526148e68186613107565b905081810360408301526148fa8185613107565b90506149096060830184613538565b95945050505050565b600061491d82613162565b915061492883613162565b9250817fffffffffffffffffffffffffffffffffffffffffffffffffffffffffffffffff0483118215151615614961576149606143a8565b5b828202905092915050565b7f45524337323155524953746f726167653a2055524920736574206f66206e6f6e60008201527f6578697374656e7420746f6b656e000000000000000000000000000000000000602082015250565b60006149c8602e836130b2565b91506149d38261496c565b604082019050919050565b600060208201905081810360008301526149f7816149bb565b9050919050565b60006060820190508181036000830152614a188186613107565b9050614a276020830185613538565b8181036040830152614a398184613107565b9050949350505050565b600081519050919050565b600082825260208201905092915050565b6000614a6a82614a43565b614a748185614a4e565b9350614a848185602086016130c3565b614a8d816130f6565b840191505092915050565b6000608082019050614aad60008301876131f7565b614aba60208301866131f7565b614ac76040830185613538565b8181036060830152614ad98184614a5f565b905095945050505050565b600081519050614af381613018565b92915050565b600060208284031215614b0f57614b0e612fe2565b5b6000614b1d84828501614ae4565b91505092915050565b7f4552433732313a206d696e7420746f20746865207a65726f2061646472657373600082015250565b6000614b5c6020836130b2565b9150614b6782614b26565b602082019050919050565b60006020820190508181036000830152614b8b81614b4f565b9050919050565b7f4552433732313a20746f6b656e20616c7265616479206d696e74656400000000600082015250565b6000614bc8601c836130b2565b9150614bd382614b92565b602082019050919050565b60006020820190508181036000830152614bf781614bbb565b905091905056fe0a2d2d2d2d2d2d2d2d2d2d2d2d2d2d2d2d2d2d2d2d2d2d2d2d2d2d2d2d2d2d2d2d2d2d2d2d2d2d2d2d2d2d2d2d2d2d2d2d2d2d2d2d2d2d2d2d5265676973746572696e672025732e2573206f6e2074686520636f6e7472616374207769746820746f6b656e49442025642d2d2d2d2d2d2d2d2d2d2d2d2d2d2d2d2d2d2d2d2d2d2d2d2d2d2d2d2d2d2d2d2d2d2d2d2d2d2d2d2d2d2d2d2d2d2d2d2d2d2d2d2d2d2d2d0a4142434445464748494a4b4c4d4e4f505152535455565758595a6162636465666768696a6b6c6d6e6f707172737475767778797a303132333435363738392b2fa264697066735822122000b538d9518c4a41dbb3bd9e7c292ab3d3a96855f8a6b3d2396842bdc40c8a3464736f6c634300080a00333c73766720786d6c6e733d22687474703a2f2f7777772e77332e6f72672f323030302f737667222077696474683d2232373022206865696768743d22323730222066696c6c3d226e6f6e65223e3c706174682066696c6c3d2275726c282342292220643d224d302030683237307632373048307a222f3e3c646566733e3c66696c7465722069643d22412220636f6c6f722d696e746572706f6c6174696f6e2d66696c746572733d2273524742222066696c746572556e6974733d227573657253706163654f6e55736522206865696768743d22323730222077696474683d22323730223e3c666544726f70536861646f772064783d2230222064793d22312220737464446576696174696f6e3d22322220666c6f6f642d6f7061636974793d222e323235222077696474683d223230302522206865696768743d2232303025222f3e3c2f66696c7465723e3c2f646566733e3c7061746820643d224d37322e3836332034322e393439632d2e3636382d2e3338372d312e3432362d2e35392d322e3139372d2e3539732d312e3532392e3230342d322e3139372e35396c2d31302e30383120362e3033322d362e383520332e3933342d31302e30383120362e303332632d2e3636382e3338372d312e3432362e35392d322e3139372e3539732d312e3532392d2e3230342d322e3139372d2e35396c2d382e3031332d342e37323161342e353220342e35322030203020312d312e3538392d312e363136632d2e3338342d2e3636352d2e3539342d312e3431382d2e3630382d322e313837762d392e3331632d2e3031332d2e3737352e3138352d312e3533382e3537322d322e32303861342e323520342e323520302030203120312e3632352d312e3539356c372e3838342d342e3539632e3636382d2e33383720312e3432362d2e353920322e3139372d2e353973312e3532392e32303420322e3139372e35396c372e38383420342e353961342e353220342e353220302030203120312e35383920312e363136632e3338342e3636352e35393420312e3431382e36303820322e31383776362e3033326c362e38352d342e303635762d362e303332632e3031332d2e3737352d2e3138352d312e3533382d2e3537322d322e32303861342e323520342e32352030203020302d312e3632352d312e3539354c34312e3435362032342e3539632d2e3636382d2e3338372d312e3432362d2e35392d322e3139372d2e3539732d312e3532392e3230342d322e3139372e35396c2d31342e38363420382e36353561342e323520342e32352030203020302d312e36323520312e353935632d2e3338372e36372d2e35383520312e3433342d2e35373220322e3230387631372e343431632d2e3031332e3737352e31383520312e3533382e35373220322e32303861342e323520342e323520302030203020312e36323520312e3539356c31342e38363420382e363535632e3636382e33383720312e3432362e353920322e3139372e353973312e3532392d2e32303420322e3139372d2e35396c31302e3038312d352e39303120362e38352d342e3036352031302e3038312d352e393031632e3636382d2e33383720312e3432362d2e353920322e3139372d2e353973312e3532392e32303420322e3139372e35396c372e38383420342e353961342e353220342e353220302030203120312e35383920312e363136632e3338342e3636352e35393420312e3431382e36303820322e31383776392e333131632e3031332e3737352d2e31383520312e3533382d2e35373220322e32303861342e323520342e32352030203020312d312e36323520312e3539356c2d372e38383420342e373231632d2e3636382e3338372d312e3432362e35392d322e3139372e3539732d312e3532392d2e3230342d322e3139372d2e35396c2d372e3838342d342e353961342e353220342e35322030203020312d312e3538392d312e363136632d2e3338352d2e3636352d2e3539342d312e3431382d2e3630382d322e313837762d362e3033326c2d362e383520342e30363576362e303332632d2e3031332e3737352e31383520312e3533382e35373220322e32303861342e323520342e323520302030203020312e36323520312e3539356c31342e38363420382e363535632e3636382e33383720312e3432362e353920322e3139372e353973312e3532392d2e32303420322e3139372d2e35396c31342e3836342d382e363535632e3635372d2e33393420312e3230342d2e393520312e3538392d312e363136732e3539342d312e3431382e3630392d322e3138375635352e353338632e3031332d2e3737352d2e3138352d312e3533382d2e3537322d322e32303861342e323520342e32352030203020302d312e3632352d312e3539356c2d31342e3939332d382e3738367a222066696c6c3d2223666666222f3e3c646566733e3c6c696e6561724772616469656e742069643d2242222078313d2230222079313d2230222078323d22323730222079323d2232373022206772616469656e74556e6974733d227573657253706163654f6e557365223e3c73746f702073746f702d636f6c6f723d2223636235656565222f3e3c73746f70206f66667365743d2231222073746f702d636f6c6f723d2223306364376534222073746f702d6f7061636974793d222e3939222f3e3c2f6c696e6561724772616469656e743e3c2f646566733e3c7465787420783d2233322e352220793d223233312220666f6e742d73697a653d223237222066696c6c3d2223666666222066696c7465723d2275726c282341292220666f6e742d66616d696c793d22506c7573204a616b617274612053616e732c44656a6156752053616e732c4e6f746f20436f6c6f7220456d6f6a692c4170706c6520436f6c6f7220456d6f6a692c73616e732d73657269662220666f6e742d7765696768743d22626f6c64223e",
  "linkReferences": {},
  "deployedLinkReferences": {}
}